:060000008031E02D00003C
:0800080083018031200077081C
:10001000A0007808A1007908A2007A08A3002300B4
:1000200011082000A400230012082000A5002300CE
:1000300013082000A600230014082000A700850153
:1000400091308400801E2628911A3F282008F7004E
:100050002108F8002208F9002308FA0024082300E8
:10006000910020002508230092002000260823008C
:10007000930020002708230094000900200080310D
:100080004128911E4128230019082100C900490870
:100090000D3C031D56283230700784002030850047
:1000A0000318850A80017114F001642870081D3C52
:1000B000031C642832307007840020308500031848
:1000C000850A49088000F00A200091128031262814
:1000D0000D05AD162D10C3274D10D32C532AC52660
:1000E0002029C520C42CA016AD160D0500000D0555
:1000F000DB27C2212029D82E3A10A5390000A02DD7
:10010000542C20224F27C52E0D050001D426CC18D3
:10011000C32AC222D32054105528A012EC3A53000F
:100120000D05DB244E2A4529CE204C10542C5D1D94
:10013000A0127300A02DC427CE22DD060A002030B5
:1001400085005A30840000080319B4280530F800EF
:10015000F701F70BA928F80BA8282E30F700F70BAA
:10016000AF28B228800BA628080021008D1022009D
:100170008D100830F800BC280000F817CF28F813BD
:100180002100AB0C220003188D14031C8D1078176E
:10019000CF287813F80BC028CD2800008D148430A8
:1001A0008400840BD1280000F81BBF28781BC928C5
:1001B000200008000B088B1323009517151400006E
:1001C0000000891B8B1713087F390319262921008A
:1001D000A800230011082100A90023001208210013
:1001E000AA002808AB002000B52021002908230020
:1001F000910021002A08230092000B088B13951709
:10020000151400000000891B8B17130D140D7F3986
:10021000031926292100A800230011082100A900A4
:10022000230012082100AA002808AB002000B520F6
:10023000210029082300910021002A0823009200B0
:10024000910A0319920A2000DA28230020000800EE
:10025000240011082100390824009100140C031C0B
:100260002E291108F7002000080021008F1322001A
:100270008F13210036088038B800B90020002821EB
:1002800021003708B9002000282121008F13220007
:100290008F172000080001302100B600B7012000B0
:1002A00035210A302100AA0020009F2001302100C2
:1002B000B6002130B700200035210A302100AA0005
:1002C00020009F2021002908AD002808AC00270845
:1002D000AB002608AA002D08B7002C08B6002B0892
:1002E000B5002A08B400B630F700FA01F901F801A8
:1002F0003408350436043704031D8029F7018D299D
:100300000310F81B8C29B40DB50DB60DB70DFA0D01
:10031000F90DF80DF70B8029F8137A08B700790862
:10032000B6007808B5007708B4003708BB00360877
:10033000BA003508B9003408B800BF012430BE0047
:100340007430BD008430BC0038080319692AC40029
:100350003C080319692AC402031CB3297F30C4076F
:100360000318692AB9298130C402031C692A0319B8
:10037000692A4408F700F801F901FA01C3013908B4
:10038000C200C2173A08C1003B08C0001930C400BF
:100390003F08C0020318DC290130C1020318DC2920
:1003A000C2020318DC29C3020318DC29C30AC20AEB
:1003B000C10A3F08C0070E2A3E08C1020318F729E8
:1003C0000130C2020318F729C3020318F729C30A30
:1003D000C20A3E08C1073F08C007031C0E2AC10A13
:1003E000031D0E2AC20A031D0E2AC30A0E2A3D0847
:1003F0008038C20203180D2A0130C30203180D2AE7
:10040000C30A3D088038C2073E08C107031CEB2918
:10041000C20A031DEB29C30AEB297A14C40B112A63
:100420001C2A0310C00DC10DC20DC30D0310FA0D1F
:10043000F90DF80DC50DC829451C242A0310F80C28
:10044000F90CFA0CC50C272AF7030319692AC51BF6
:10045000502A0310C00DC10DC20DC30D3F08C002CC
:1004600003183C2A0130C10203183C2AC2020318B7
:100470003C2AC302031C5F2A3E08C1020318472A14
:100480000130C2020318472AC302031C5F2A3D0839
:100490008038C2020318502A0130C302031C5F2AAD
:1004A000FA0A031D5F2AF90A031D5F2AF80A031DD1
:1004B0005F2AF70A0319692AF80CF90CFA0C3908B3
:1004C000C4003D08C406C41F672AF8176D2AF81334
:1004D0006D2AF701F801F901FA017A08B7007908E5
:1004E000B6007808B5007708B4003408B63CB4000C
:1004F000FA013508B800B5170310B50CB60CB70CE7
:10050000FA0CF90CF80CF70CB40B7C2AB81F932AE0
:10051000F709F809F909FA09F70A0319F80A03199A
:10052000F90A0319FA0A7A08B1007908B0007808C4
:10053000AF007708AE003008F7003108F800F90185
:10054000FA013008B5000630B6003008B7002000C8
:10055000352121002F08F7003008F8003108F90094
:10056000FA012F08B5000730B6002F08B7002000A9
:10057000352108302100B6002E08B70020003521B3
:1005800009302100B600FF30B700200035214D3082
:100590002100B6008730B700200035210B30210044
:1005A000B6003B30B700200035210A302100B600EC
:1005B0000930B7002000352180313A2E0B088B130B
:1005C00023009517151400000000891B8B170318D2
:1005D000112B13087F392100A800230011082100E6
:1005E000A900230012082100AA002808AB0020005F
:1005F000B520210029082300910021002A082300AA
:1006000092000B088B139517151400000000891B2E
:100610008B172100A60B0D2B0F2B2300112B342B36
:100620002300130D140D7F392100A80023001108A9
:100630002100A900230012082100AA002808AB000D
:100640002000B520210029082300910021002A085C
:1006500023009200910A0319920A03102100A60BAD
:10066000322B342B2000DE2A2000080080080319DA
:100670004A2B05082100A7000408A6000008AB00CB
:100680002000B520210027088500260884000131BC
:100690002000362B080001302100B6002B30B700B7
:1006A00020003521080001302100B6002930B700B4
:1006B0002000352108004B2332302100AA00200001
:1006C0009F20532332302100AA0020009F200800E1
:1006D0004B2396302100AA0020009F205323323064
:1006E0002100AA0020009F20080021002908203CAA
:1006F000031D802BC830AA0020009F20632C2100FE
:100700002908603C03188A2B29087A3C031C8A2B91
:100710002030A90230302902D53E03185F2C2B3E31
:100720002000652C5B23682321005F2C68235B235A
:100730005B235B2321005F2C68235B2368235B23FF
:1007400021005F2C68235B235B2321005F2C5B234C
:1007500021005F2C5B235B2368235B2321005F2C3C
:10076000682368235B2321005F2C5B235B235B23CF
:100770005B2321005F2C5B235B2321005F2C5B2329
:1007800068236823682321005F2C68235B23682388
:1007900021005F2C5B2368235B235B2321005F2CFC
:1007A0006823682321005F2C68235B2321005F2CD2
:1007B00068236823682321005F2C5B236823682358
:1007C0005B2321005F2C682368235B2368232100BF
:1007D0005F2C5B2368235B2321005F2C5B235B235F
:1007E0005B2321005F2C682321005F2C5B235B23AC
:1007F000682321005F2C5B235B235B23682321009C
:100800005F2C5B236823682321005F2C68235B2314
:100810005B23682321005F2C68235B236823682304
:1008200021005F2C682368235B235B2321005F2C5E
:100830006823682368236823682321005F2C5B23D7
:10084000682368236823682321005F2C5B235B23D4
:1008500068236823682321005F2C5B235B235B23D1
:100860006823682321005F2C5B235B235B235B23CE
:10087000682321005F2C5B235B235B235B235B23CB
:1008800021005F2C68235B235B235B235B23210018
:100890005F2C682368235B235B235B2321005F2C91
:1008A0006823682368235B235B2321005F2C682374
:1008B0006823682368235B2321005F2C21006430B8
:1008C000AA0020009F208031BF2C0A108A100A1530
:1008D0008207182C1F2C262C2D2C342C3B2C422C20
:1008E000492C502C572C5E2C5E2C5E2C5E2C5E2CE2
:1008F0005E2C5E2C922B962B9C2BA22BA72BAA2B2B
:10090000B02BB52BBB2BBF2BC52BCA2BD02BD42B7D
:10091000D82BDD2BE32BE92BEE2BF32BF62BFB2B2C
:10092000012C062C0C2C122C4B2308302100A80083
:10093000FA30AA0020009F202100A80B982C20004C
:10094000532304302100A800FA30AA0020009F2081
:100950002100A80BA42C2708FA00260884007A0896
:10096000850080080319C42C2708FA002608840093
:100970007A0885000008A800A9002000752B210036
:10098000A60A0319A70AAB2C2000080073088500EB
:1009900072088400210038081A008001F20A031945
:1009A000F30A200008000B088B1323009517151479
:1009B00000000000891B8B170318062D13087F39D0
:1009C0002100A800230011082100A900230012081B
:1009D0002100AA002808B8002000C6242100290808
:1009E0002300910021002A08230092000B088B139A
:1009F0009517151400000000891B8B172100A60B0A
:100A0000022D042D2300062D292D2300130D140D76
:100A10007F392100A800230011082100A90023002C
:100A200012082100AA002808B8002000C6242100CE
:100A300029082300910021002A0823009200910A2E
:100A40000319920A03102100A60B272D292D20003F
:100A5000D32C80312000952E8318322D2030850034
:100A600073308400F701F801F901FA012100C30194
:100A7000C401C501C6013F083E043D043C040319FE
:100A8000712D2030C7000310B80DB90DBA0DBB0D84
:100A9000C30DC40DC50DC60D3F084602031D5A2DDA
:100AA0003E084502031D5A2D3D084402031D5A2DE0
:100AB0003C084302031C6B2D3C08C3023D08031C89
:100AC0003D0FC4023E08031C3E0FC5023F08031C35
:100AD0003F0FC6020314F70DF80DF90DFA0DC70B01
:100AE000432D430880004408813F4508823F460863
:100AF000833F2000080004082100B0003B30B7000D
:100B00009A30B600CA30B500B4010A30B20083147E
:100B100020308500563084002908BB002808BA0020
:100B20002708B9002608B8003708BF003608BE00FD
:100B30003508BD003408BC0020002C257808F708D3
:100B4000031DB92D21003208013A031DA92D2000F3
:100B5000B92D30080319BB2D0F3932020319B22DFC
:100B60000318C22DB01BC22D301BBB2D2030BC2D55
:100B700020002100B0013030F7077708B8002000CE
:100B8000C624210083103708BB003608BA00350898
:100B9000B9003408B800BF01BE01BD010A30BC0075
:100BA00020002C257A082100B7007908B6007808C3
:100BB000B5007708B400B20B872D80312000A82E35
:100BC00023009F15A0309B0001309C00A6309E00A2
:100BD00090309D0021008D1022008D14240095126C
:100BE00040309400033092002A30950022009D127C
:100BF0009D111D1221008E120E168E112000B101C2
:100C0000B001AF01AE01F0017110F301F201230058
:100C10008C018D018E018F019001220092019101C2
:100C20002000A801A9012100A501A401A301A2019E
:100C30009116C0308B040230A600FA30AA002000C2
:100C40009F202100A60B1D2E68302300910000304C
:100C500092002000DA2021008F1322008F171A3013
:100C60002100A9000E30A8002630A7009830A60069
:100C700020004B2901302100AA0020009F200130D4
:100C80002100A2070318A30A0319A40A0319A50A3D
:100C9000711C6E2E773023009100003092000310FB
:100CA0000C302100A6002000DE22203085003230EA
:100CB0008400362320302100A7003230A600200017
:100CC00094247F3023009100003092002000DA202D
:100CD00071102100A501A401A301A201A508031D13
:100CE0007F2EA408031D7F2E2308743C0318D02EEA
:100CF000FF3A031D7F2E2208303C0318D02E1E30F1
:100D00002000AE070030AF3DB03DB13D2030F300D4
:100D10001230F20086302300910000309200031060
:100D20000F302100A6002000D32C41308400310870
:100D30002100A900200030082100A80020002F0871
:100D40002100A70020002E082100A60020007B2DF6
:100D500053302100B8002000C624903023009100B9
:100D600000309200031011302100A6002000DE2286
:100D70002030850012308400362320302100A70067
:100D80001230A600200094249A30230091000030F5
:100D900092002000DA202100A501A401A301A201F4
:060DA00020003A2E630062
:020000040001F9
:04000E00C239FF1ED6
:00000001FF
;PIC16F1789
;CRC=234C  CREATED="27-Jan-26 02:07"
